:020000040800F2
:100000002008002091010008F32A0008D7240008E6
:10001000F12A0008CD050008BF2D000800000000EF
:10002000000000000000000000000000A301000824
:10003000F906000800000000A70100082F2C0008A6
:10004000AB010008AB010008AB010008AB010008E0
:10005000AB010008AB010008AB010008AB010008D0
:10006000AB010008FB060008AB010008AB0100086B
:10007000AB010008AB010008AB010008AB010008B0
:10008000AB010008AB010008AB010008AB010008A0
:10009000AB010008AB010008AB010008AB01000890
:1000A000AB010008AB010008AB010008AB01000880
:1000B000AB010008AB010008AB010008AB01000870
:1000C000AB010008AB010008AB010008AB01000860
:1000D000AB010008AB010008AB010008AB01000850
:1000E000AB010008AB010008AB01000800F002F80A
:1000F00000F03FF80AA090E8000C82448344AAF183
:100100000107DA4501D100F034F8AFF2090EBAE880
:100110000F0013F0010F18BFFB1A43F0010318473B
:100120000C3700002C370000103A24BF78C878C183
:10013000FAD8520724BF30C830C144BF04680C60ED
:10014000704700000023002400250026103A28BF35
:1001500078C1FBD8520728BF30C148BF0B60704739
:10016000642900F07F80002070471FB51FBD10B5C7
:1001700010BD00F094F91146FFF7F7FF02F02CFED6
:1001800000F0B2F903B4FFF7F2FF03BC00F0BAF9D4
:100190000948804709480047FEE7FEE7FEE7FEE71B
:1001A000FEE7FEE7FEE7FEE7FEE7FEE70448054957
:1001B000054A064B70470000A92C0008ED00000816
:1001C000200200202008002020040020200400201D
:1001D0000FB41CB5084B06AA7B44694600900598ED
:1001E00000F045F904460020694600F053F9204626
:1001F0001CBC5DF814FB0000B90200002DE9F041C1
:100200000E460446002020622046E168884730B34D
:10021000252805D0D4E901219047206A401CF2E747
:10022000E168204600278847050018D0A5F1410065
:10023000192802D820354FF4006732462946204657
:100240002760FFF78DFF40B1012804D0F61D26F08E
:1002500007060836D8E7361DD6E72846DAE7206ACB
:10026000BDE8F0812DE9F0410646002410687529AB
:10027000314616A510D0AFF30080002802DA4042C4
:1002800013A507E031688A0701D512A502E04907E6
:1002900004D511A5012401E0AFF3008000210A225A
:1002A00006F1240709E0B0FBF2FCB0FBF2F302FB1D
:1002B0001C00303078541846491C0028F3D12346DE
:1002C0002A463046BDE8F04100F073B80000000057
:1002D0002D0000002B000000200000004FF0000265
:1002E00000B5134694469646203922BFA0E80C502C
:1002F000A0E80C50B1F12001BFF4F7AF090728BF07
:10030000A0E80C5048BF0CC05DF804EB890028BF82
:1003100040F8042B08BF704748BF20F8022B11F0AB
:10032000804F18BF00F8012B704700004FF0013CD0
:1003300050F8042B51F8043B9A4221D1A2EB0C0354
:10034000934313EACC1317D150F8042B51F8043B14
:100350009A4215D1A2EB0C03934313EACC130BD1B1
:1003600050F8042B51F8043B9A4209D1A2EB0C033C
:10037000934313EACC13DBD04FF00000704700BF6B
:10038000D01A01BAB1FA81F101F0180122FA01F094
:10039000CB40C1F12001DBB2C0B2C01A2CFA01F38C
:1003A000D11A914311EAC311E6D1704770477047E3
:1003B00070472DE9F0470D4699469246044600F1F4
:1003C00024080168880604D5E06921F01001216045
:1003D00000E00120A84201DD471B00E00027A169E1
:1003E0007A1902EB0900081AA0612078C00602D42D
:1003F0002046AFF30080002608E0D4E901211AF876
:1004000006009047206A401C761C20624E45F4DBB3
:100410002078C0060AD52046AFF3008006E0D4E974
:10042000012130209047206A401C2062381EA7F12D
:100430000107F4DC07E0D4E9012118F80500904732
:10044000206A401C2062281EA5F10105F3DC20462D
:10045000AFF300802078000602D50220BDE8F087C7
:100460000120FBE701694A1C02610878704700B56A
:100470008FB0CDE901310021059105497944CDE9DD
:10048000031011466846FFF7B9FE0FB000BD00002B
:10049000E5FFFFFF0A6802F8010B0A607047754626
:1004A00000F02CF8AE4605006946534620F00700E0
:1004B000854618B020B5FFF779FEBDE820404FF023
:1004C00000064FF000074FF000084FF0000B21F03E
:1004D0000701AC46ACE8C009ACE8C009ACE8C0090B
:1004E000ACE8C0098D46704710B50446AFF30080F4
:1004F0002046BDE81040FFF745BE000000487047A9
:10050000BC01002001491820ABBEFEE72600020016
:10051000704770B5044600688168C943C9071BD19C
:10052000816821F00101816000F0C4FC05460EE005
:1005300000F0C0FC401B022809D9A06A40F010005E
:10054000A062E06A40F00100E062012070BD206816
:100550008068C043C007EBD0002070BDF8B500260E
:100560000446009600688168C943C90727D081689E
:1005700041F001018160134813490068B0FBF1F0BC
:1005800000E0401E00900028FBD100F093FC0546DF
:1005900010E000F08FFC401B02280BD9A06A40F04D
:1005A0001000A062E06A40F00100E06284F824607C
:1005B0000120F8BD20688068C043C007E9D1002051
:1005C000F8BD00003C00002040420F00FEE70000A4
:1005D0002DE9F04100244FF001081D4F1D4E00F0A1
:1005E00069FC306200F066FC70620121384600F060
:1005F00057FC20B9D6E90801801C8842F2D828208F
:1006000002F0DEFB0121384600F04AFC0028C4F16C
:10061000070108FA01F018D02843C5B200F04AFCDF
:10062000306200F047FC70620121384600F038FC6F
:1006300020B1D6E90801801C8842F2D8641CE4B2DB
:10064000082CCCD32846BDE8F0818543E6E70000BE
:1006500000080140000000202DE9FF410025022094
:10066000CDE902500124224E2F46009469460194A0
:10067000304600F031FB00220121304600F015FC2D
:10068000142000F0C1FA01221146304600F00DFCA2
:100690001E2002F095FBCDE901746946304600F05A
:1006A0001BFB282002F08CFB0121304600F0F8FBF8
:1006B00040B9502002F084FB0121304600F0F0FBED
:1006C00000B1012500F0F6FB0A4C206200F0F2FBBD
:1006D00060620121304600F0E3FB20B1D4E908015B
:1006E000801C8842F2D804B02846BDE8F0810000A2
:1006F0000008014000000020FEE7082000F0E0BAFA
:10070000F8B50023009390F824209E46012A1ED0BD
:10071000012280F824204A681F254FF47874072AA4
:1007200017D20668776B94FAA4FCBCFA8CFC521EB4
:1007300002FB0CFC05FA0CF5AF4394FAA4F4B4FAEE
:1007400084F40D68624395402F4377632DE00220C7
:10075000F8BD06680D2A14D2376B94FAA4FCBCFAD3
:100760008CFCD21F02FB0CFC05FA0CF5AF4394FA8B
:10077000A4F4B4FA84F40D68624395402F433763C0
:1007800013E0F76A94FAA4FCBCFA8CFC0D3A02FB65
:100790000CFC05FA0CF5AF4394FAA4F4B4FA84F413
:1007A0000D68624395402F43F7620A683825072693
:1007B00004680A2A14D3E76895FAA5FCBCFA8CFCF5
:1007C0000A3A02FB0CFC06FA0CF6B74395FAA5F5BB
:1007D000B5FA85F58E686A4396403743E76012E0C4
:1007E000276995FAA5FCBCFA8CFC02FB0CFC06FA06
:1007F0000CF6B74395FAA5F5B5FA85F58E686A4308
:100800009640374327610A68102A01D0112A20D167
:10081000124C0268A24217D19468240219D4946839
:1008200044F4000494600968102912D10C490D4A5F
:100830000968B1FBF2F101EB8101490000E0491EBA
:1008400000910029FBD104E0816A41F0200181621E
:10085000012380F824E01846F8BD00000024014080
:100860003C00002040420F000068C06C7047000050
:100870002DE9F04104004FF0000513D0A06A0026D6
:1008800028B9E66284F82460204600F08BF8204600
:10089000FFF73FFEA16AC90600D420B1A06A40F06C
:1008A0001000A06277E0A16A21F4885141F00201B2
:1008B000A1626268E169E3680A43022191FAA1F149
:1008C000B1FA81F103FA01F10A43A1684FF480778C
:1008D000B94208D0012906D00021D4F814C0BCF1D7
:1008E000010F02D00AE03946F7E7F3B1A36A43F0FB
:1008F0002003A362E36A43F00103E3622368D3F8B1
:1009000004C02CF4694C4CEA010CC3F804C0216803
:100910008B68DFF888C003EA0C0313438B60A1687F
:10092000B94210D001290ED016E04FF4604CA369F3
:100930009CFAACFCBCFA8CFC5B1E03FA0CF30B4378
:1009400043F40061DAE74FF47001256991FAA1F1EF
:10095000B1FA81F16D1E8D402168CB6A23F47003DA
:100960002B43CB62216889680D4B1940914208D115
:10097000E662A16A21F0020141F00101A162BDE835
:10098000F081A06A20F0020040F01000A062E06A4E
:1009900040F00100E0620120F1E70000FDF7E1FF17
:1009A000FE0E1FFF00B500680B4985B0884210D1CC
:1009B0000A48816941F4007181618069694600F4E7
:1009C000007004900220009003200190044800F081
:1009D00083F905B000BD0000002401400010024072
:1009E000000801402DE9F8434FF000080D46044689
:1009F000CDF8008000F05EFA064620688168C905DF
:100A000008D5A06A40F02000A06284F8248001206C
:100A1000BDE8F8834168C90503D4C06A10F4700FBB
:100A200025D0022000F0FCFA37490968B1FBF0F745
:100A300020680169354A11424FEA62024FEAA21367
:100A40001AD1C1684FEA621C11EA0C0F14D1016976
:100A5000114220D1C06818421DD114201EE0681C2C
:100A600005D035B300F026FA801BA84221D82068B3
:100A700000688007F3D529E00169114202D1C168FD
:100A8000194206D0026922490A4206D1C0680842CA
:100A900003D1542002E0292000E0FC2047430098C5
:100AA00012E0681C0DD025B100F004FA801BA842AA
:100AB00007D9A06A40F00400A06284F824800320D3
:100AC000A6E70098401C0090B842EAD321686FF076
:100AD00012000860A06A40F40070A062206880687C
:100AE000C0F3424007280CD1E06850B9A06A20F456
:100AF0008070A062A06AC00403D4A06A40F0010024
:100B0000A062002084E700003C00002024499224D9
:100B10004992240070B5044690F8240001280DD0B5
:100B2000012084F824002046FFF718FD01004FF053
:100B3000000205D084F82420084670BD022070BD54
:100B4000A06A40F20123984340F48070A0621F4DD8
:100B500020681F4BA84218D11E6816F4702F14D0BD
:100B6000A66A46F48016A6621E68760505D5A66AB2
:100B700026F4005646F48056A662A66AF6040AD504
:100B8000E66A26F00606E66206E0A66A26F4801605
:100B9000A6624668E9E7E26284F824206FF0020268
:100BA000026020688268C2F34242072A05D1A84247
:100BB00008D11A6812F4702F04D0826842F48012AF
:100BC0008260B9E7826842F4A002F9E70028014098
:100BD0000424014010B5044690F82400012807D0F1
:100BE000012084F824002046FFF793FC10B107E0B1
:100BF000022010BDA16A21F4885141F00101A162D7
:100C0000002184F8241010BD31B500F053F90446DA
:100C100000F050F90099001B8842F9D338BD00005C
:100C200070B5082836D11C490A22A1F12C0001F028
:100C30005BFD1AA11848FFF779FB1A4C012528B172
:100C400019A11548FFF772FB10B105E025701BE0F4
:100C5000207808B1257117E014A10F48FFF766FB53
:100C6000144E28B114A10C48FFF760FB20B10BE033
:100C70006570E570002203E000206570E0700122DD
:100C80001021304600F011F9BDE870400A210248F9
:100C9000FFF724BB70BD0000300100204745545FC2
:100CA0004944320000000020323030004F4E5F498E
:100CB00044320000000C01404F46465F4944320078
:100CC000044910B50A68024202D00860FFF7A8FF85
:100CD00010BD0000140401402DE9F84FDFF8A09189
:100CE000002309F1040A0AF1040B1C464FF00F0817
:100CF0000BF1040E01270A68A7403A40BA4272D1AC
:100D0000DFF880C14D68A5EB0C0665452BD00DDCE6
:100D1000032D34D005DC35B3012D19D0022D2FD190
:100D20001BE0112D16D0122D2AD119E0B6F5881F1F
:100D300019D006DCB6F5803F15D0B6F5801F1FD15F
:100D400011E0B6F5001F0ED0B6F5041F18D10AE069
:100D5000CB6815E0CB681B1D12E0CB6808330FE0B1
:100D6000CB680C330CE08B682BB1012B4FF00803E0
:100D700003D0476104E0042302E0076100E00023A0
:100D8000FF2A01D8064601E000F104064FEA840577
:100D900001D9A5F12005376808FA05FC27EA0C07F8
:100DA00003FA05F547EA050737604D68ED0060D5A1
:100DB000354DAE6946F00106AE61AD6924F003061B
:100DC00005F001050095314D7719BE68A5072D0F77
:100DD00008FA05FC26EA0C06DFF8B4C0604503D12A
:100DE0004FF0000C17E044E0DFF8A8C0604502D1E6
:100DF0004FF0010C0FE0DFF8A0C0604502D14FF0CA
:100E0000020C08E0DFF894C0604502D14FF0030CFB
:100E100001E04FF0040C0CFA05FC4CEA060CC7F894
:100E200008C04D68D9F80060ED034D4601D5164362
:100E300000E096432E604D68DAF80060AD03554639
:100E400001D5164300E096432E604D68DBF8006044
:100E5000ED025D4601D5164300E096432E604D68D5
:100E6000DEF80060AD02754601D5164300E09643FA
:100E70002E60641C102CFFF43DAFBDE8F88F00001D
:100E80000004014000001110001002400000014069
:100E900000080140000C0140001001400014014016
:100EA0008068084000D0012070470AB10161704796
:100EB0000904FBE701480068704700003400002087
:100EC00002480168491C016070470000340000209E
:100ED000074810B5016841F010010160032000F0DF
:100EE0007DF8002000F006F800F016F8002010BD94
:100EF0000020024010B5044600F0D2FA4FF47A7197
:100F0000B0FBF1F001F0EBF900222146501E00F099
:100F100045F8002010BD0000184808B5816941F06F
:100F200001018161806900F001000090032000F060
:100F300055F8002211466FF00B0000F02FF8002248
:100F400011466FF00A0000F029F8002211466FF0F8
:100F5000090000F023F800221146101F00F01EF8CF
:100F600000221146501E00F019F80548416821F092
:100F7000E06141F00071416008BD000000100240D6
:100F80000000014000F01F02012191404009800053
:100F900000F1E020C0F8001170470000F0B40E4BE3
:100FA0001B68C3F30223C3F10704042C00D90424F3
:100FB0001D1D072D01D2002300E0DB1E012606FACD
:100FC00004F56D1E0D409D409E40761E164045EA7C
:100FD0000601F0BC01F08FBD0CED00E0064A00F008
:100FE000070110684FF6FF03184040EA012003494B
:100FF00008431060704700000CED00E00000FA05A7
:101000000648026822F004020260012903D040BFB2
:1010100020BF20BF704730BF7047000010ED00E0D8
:1010200010B5014632A086B01DC88DE81D0034A061
:10103000344C006804900020012930D0022947D0A8
:1010400010292AD161682268D20126D54FF4701286
:1010500092FAA2F201F47010B2FA82F2D040C903FF
:101060001DF8000010D561684FF4003292FAA2F228
:1010700001F40031B2FA82F2D14004AA515C224A52
:10108000B2FBF1F1484301E020494843616849025D
:1010900003D440000321B0FBF1F006B010BD216A7B
:1010A000C1F30122012A03D1890701D5D003F4E756
:1010B000022A05D1616A890702D549F64040ECE76A
:1010C000032AEAD121688903E7D54FF22440E4E7F7
:1010D00000F000FA61684FF4804292FAA2F201F443
:1010E0004041B2FA82F2D140491C4900D3E70000E6
:1010F00002030405060708090A0B0C0D0E0F101059
:10110000010200000010024000127A0000093D00B8
:101110002DE9F84304460078444EC00772D0F069C8
:1011200040F08050F061F069414F00F08050009035
:10113000386840F480703860FFF7BCFE054604E074
:10114000FFF7B8FE401B642831D83868C005F7D5D2
:10115000306AA18800F4407001F44071884251D097
:10116000306A01273B0493FAA3F1B1FA81F18A00B6
:10117000304920F440700A44C2F8007493FAA3F393
:10118000B3FA83F301EB83010022C1F8002430623B
:10119000800731D5FFF78EFE054641F288394FF0C2
:1011A000020807E0FFF786FE411B494502D90320EC
:1011B000BDE8F88398FAA8F0B0FA80F040F040005B
:1011C0004146B7EB501F01D130680BE091FAA1F016
:1011D000B0FA80F040F04000B1EB501F01D1306A0E
:1011E00000E0706A98FAA8F1B1FA81F101F01F02EB
:1011F00007FA02F10842D5D0306A616820F44070E5
:10120000084330622078800705D57068A16820F413
:101210004040084370602078C00605D57068E168DA
:1012200020F48000084370600020C1E700100240F5
:101230000070004000004242704700002DE9F04776
:10124000DFF8549204460F46D9F80000934D00F0A1
:1012500007010120430446064FF0020C41F2883892
:10126000B94274D2D9F8002022F007023A43C9F8F3
:101270000020D9F8001001F00701B94268D12178A7
:10128000890705D56968A26821F0F00111436960FA
:101290002178C9074FD0616801290BD0022917D0E6
:1012A0009CFAACF2B2FA82F242F0200252091DD04E
:1012B0002A681CE093FAA3F2B2FA82F242F020020A
:1012C000520901D02A6800E06A6A93FAA3F310E099
:1012D00096FAA6F2B2FA82F242F02002520901D046
:1012E0002A6800E06A6A96FAA6F302E06A6A9CFA43
:1012F000ACF3B3FA83F303F01F039840024227D004
:10130000686820F0030008436860FFF7D3FD0646D5
:101310006068012809D00228474612D01EE0FFF776
:10132000C9FD801BB84201D988E047466868C0F310
:1013300081000128F3D197E0FFF7BCFD801BB84284
:101340007CD86868C0F381000228F5D18CE00AE0FF
:1013500088E0FFF7AFFD801BB8426FD8686810F0D7
:101360000C0FF6D180E02178890705D56968A2685D
:1013700021F0F001114369602178C90765D06168E7
:1013800001290BD0022917D09CFAACF2B2FA82F2F2
:1013900042F0200252091DD02A681CE093FAA3F201
:1013A000B2FA82F242F02002520901D02A6800E02B
:1013B0006A6A93FAA3F310E096FAA6F2B2FA82F2FE
:1013C00042F02002520901D02A6800E06A6A96FAC7
:1013D000A6F302E06A6A9CFAACF3B3FA83F303F073
:1013E0001F03984002423DD0686820F00300084384
:1013F0006860FFF75FFD06466068012807D0022895
:1014000010D01EE0FFF756FD811B414516D86868D5
:10141000C0F381000128F5D117E0FFF74BFD811BD8
:1014200041450BD86868C0F381000228F5D10CE073
:1014300004E0FFF73FFD811B414502D90320BDE8D1
:10144000F087686810F00C0FF3D1D9F8001021F084
:1014500007013943C9F80010D9F8000000F007006F
:10146000B84201D00120EAE72078400705D5686836
:10147000E16820F4E060084368602078000706D542
:101480006868216920F4605040EAC100686000206B
:10149000FFF730FD0020D2E700200240001002409C
:1014A00000B500F02DF808494968F02292FAA2F23E
:1014B00001F0F001B2FA82F2D140044A515CC84016
:1014C0000349086000BD0000001002401A380008FF
:1014D0003C00002000B5FFF7E3FF074949684FF4DF
:1014E000605292FAA2F201F46051B2FA82F2D14053
:1014F000024A515CC84000BD001002401A38000882
:1015000010B519A085B00FC88DE80F001AA01B4BAD
:101510000068049059681A4801F00C02042A1DD092
:10152000082A1BD14FF4701494FAA4F401F4701239
:10153000B4FA84F4E240C9031DF8022010D55968BA
:101540004FF4003393FAA3F301F40031B3FA83F3B9
:10155000D94004AB595CB0FBF1F0504305B010BD6D
:1015600008485043FAE7000002030405060708098B
:101570000A0B0C0D0E0F10100102000000100240AB
:1015800000127A0000093D0010B5044CA068000666
:1015900003D5FFF751FE8020A07210BD001002405D
:1015A0002DE9F84F04460078FA4DC0074FF00106C8
:1015B00025D068687704C0F38100012807D06868E7
:1015C000C0F3810002281BD16868C00318D597FAC0
:1015D000A7F0B0FA80F040F02000400901D0286860
:1015E00000E0686A97FAA7F1B1FA81F101F01F01F2
:1015F00006FA01F1084202D06068002876D081E046
:10160000286820F480302860286820F48020286032
:10161000FFF750FC804605E0FFF74CFCA0EB08000C
:1016200064287CD897FAA7F0B0FA80F040F0200048
:10163000400901D0286800E0686A97FAA7F1B1FA7A
:1016400081F101F01F0106FA01F10842E4D160685E
:10165000B0F5803F0BD010B1B0F5A02F11D02868A5
:1016600020F480302860286820F4802002E0286878
:1016700040F480302860606820B3FFF71BFC804690
:101680000AE0286840F480202860F0E7FFF712FCA9
:10169000A0EB08006428C4D897FAA7F0B0FA80F04D
:1016A00040F02000400901D0286800E0686A97FAFD
:1016B000A7F1B1FA81F101F01F0106FA01F1084228
:1016C000E4D01FE0FFF7F6FB804605E0FFF7F2FBF2
:1016D000A0EB08006428A4D897FAA7F0B0FA80F02D
:1016E00040F02000400902D0286801E0B1E0686ABB
:1016F00097FAA7F1B1FA81F101F01F0106FA01F1A1
:101700000842E3D12078DFF8908280074FF0000B89
:101710004FF0020732D5686810F00C0F00E084E14A
:101720004FF0F80A07D06868C0F38100022826D17C
:101730006868C00323D497FAA7F0B0FA80F040F0AD
:101740002000400901D0286800E0686A97FAA7F1F4
:10175000B1FA81F101F01F0106FA01F1084202D04D
:101760002069012875D128689AFAAAF220F0F801B8
:101770006069B2FA82F290400143296058E0206922
:1017800080B396FAA6F0B0FA80F048F82060FFF730
:1017900091FB814605E0FFF78DFBA0EB09000228D5
:1017A00099D897FAA7F0B0FA80F040F020004009ED
:1017B00001D0286800E0686A97FAA7F1B1FA81F1D0
:1017C00001F01F0106FA01F10842E4D028689AFAF4
:1017D000AAF26169B2FA82F220F0F800914008435F
:1017E000286025E0FFE796FAA6F1B1FA81F148F802
:1017F00021B0FFF75FFB814605E0FFF75BFBA0EB45
:1018000009000228CCD897FAA7F0B0FA80F040F08F
:101810002000400901D0286800E0686A97FAA7F123
:10182000B1FA81F101F01F0106FA01F10842E4D199
:10183000207800076DD5A069B8B396FAA6F0B0FA83
:1018400080F008EB8000C0F88064FFF733FB81462E
:1018500006E0A9E1FFF72EFBA0EB090002289FD8C4
:1018600097FAA7F0B0FA80F040F06000B6EB501F96
:1018700001D128680BE097FAA7F0B0FA80F040F0A9
:101880006000B7EB501F01D1286A00E0686A97FA40
:10189000A7F1B1FA81F101F01F0106FA01F210423D
:1018A000D8D00120FFF7B0F933E0FFE796FAA6F0B1
:1018B000B0FA80F008EB8000C0F880B4FFF7FAFAC5
:1018C000814605E0FFF7F6FAA0EB0900022899D857
:1018D00097FAA7F0B0FA80F040F06000B6EB501F26
:1018E00001D128680BE097FAA7F0B0FA80F040F039
:1018F0006000B7EB501F01D1286A00E0686A97FAD0
:10190000A7F1B1FA81F101F01F0106FA01F21042CC
:10191000D8D12078400771D5E86940F08050E8615F
:10192000E869DFF878A000F080500090DAF8001045
:1019300041F48071CAF80010FFF7BCFA814605E057
:10194000FFF7B8FAA0EB090064286ED8DAF80000B7
:10195000C005F5D5286A20F001002862286A20F029
:1019600004002862FFF7A6FA814641F2883A05E0B2
:10197000FFF7A0FAA0EB0901514556D897FAA7F056
:10198000B0FA80F040F04000B6EB501F08D1286854
:1019900012E00000001002400000424200700040CF
:1019A00097FAA7F0B0FA80F040F04000B7EB501F74
:1019B00001D1286A00E0686A97FAA7F1B1FA81F1CB
:1019C00001F01F0106FA01F10842D1D1E0680128B7
:1019D0000AD008B1052812D0286A20F00100286238
:1019E000286A20F0040002E0286A40F00100286222
:1019F000E06890B3FFF75EFA81460BE059E0286A91
:101A000040F004002862EFE7FFF754FAA0EB090169
:101A100051450AD897FAA7F0B0FA80F040F040009C
:101A2000B6EB501F02D128680CE09FE097FAA7F0B0
:101A3000B0FA80F040F04000B7EB501F01D1286AA7
:101A400000E0686A97FAA7F1B1FA81F101F01F028C
:101A500006FA02F10842D7D02BE0FFE7FFF72AFA97
:101A6000814605E0FFF726FAA0EB090151457DD834
:101A700097FAA7F0B0FA80F040F04000B6EB501FA4
:101A800001D128680BE097FAA7F0B0FA80F040F097
:101A90004000B7EB501F01D1286A00E0686A97FA4E
:101AA000A7F1B1FA81F101F01F0206FA02F1084232
:101AB000D8D1E06990B36968C1F38101022973D07C
:101AC0004FF0807102280BD091FAA1F1B1FA81F1A7
:101AD00048F821B0FFF7EEF904464FF000776CE0CC
:101AE00091FAA1F0B0FA80F08946C24648F820B0D9
:101AF000FFF7E0F9B04607464FF0007604E0FFF745
:101B0000D9F9C01B022855D896FAA6F0B0FA80F091
:101B100040F02000400902D0286801E062E0686AD5
:101B200096FAA6F1B1FA81F101F01F0208FA02F16A
:101B30000842E4D1206AB0F5803F05D16868A16809
:101B400020F4003008436860D4E90801084369685C
:101B500021F474110843686099FAA9F0B0FA80F092
:101B600047464AF82080FFF7A5F900E022E0044646
:101B700004E0FFF79FF9001B02281BD896FAA6F095
:101B8000B0FA80F040F02000400901D0286800E061
:101B9000686A96FAA6F1B1FA81F101F01F0107FA1D
:101BA00001F10842E5D01DE01EE0FFF783F9001BBC
:101BB000022802D90320BDE8F88F97FAA7F0B0FAFF
:101BC00080F040F02000400901D0286800E0686AF9
:101BD00097FAA7F1B1FA81F101F01F0106FA01F1BC
:101BE0000842E2D10020E6E70120E4E74FF0E020E0
:101BF000016941F002010161704790F8510070479E
:101C000010B5040003D094F8510010B104E0012095
:101C100010BD204600F038F8022084F851002068FA
:101C2000016821F040010160D4E901010843D4E9D1
:101C300003121143084361690843218B01F40071C9
:101C40000843E1690843216A0843A16A08432168FF
:101C50000860A069042101EA1040616A0843216814
:101C600048602168E06A08612068C16921F4006168
:101C7000C1610449002008706065012084F85100AA
:101C8000002010BD3800002010B50068114986B052
:101C900088421CD11048816941F48051816180697A
:101CA0000E4C00F480500490A0200090022001907F
:101CB0000320039069462046FFF70EF8402100916B
:101CC00000210191029169462046FFF705F806B010
:101CD00010BD00000030014000100240000801402B
:101CE0002DE9F84F00259A460446ADF8005090F8CB
:101CF000510001287ED1E9B3E2B394F850000128E5
:101D000078D0012784F85070222084F8510065654E
:101D1000A163A287E287A564E5642563A586E586BD
:101D2000A0684FF40049484504D12068036823F4B3
:101D300080430360A06A4FF40056B04209D1206886
:101D4000036823F4005303602068036843F40053DE
:101D5000036060684FF48278404501D1A06878B193
:101D600020680168490603D4016841F04001016020
:101D7000E06800E001E0E8B131E00120BDE8F88F63
:101D800084F8505013460A462046CDF800A000F0D3
:101D900040F9F3E7534600220121204600F0F8FE07
:101DA00048BB2068C168A06B421CA2630170E08F31
:101DB000401EE087E08F0128ECD813E05346002254
:101DC0000121204600F0E4FEA8B92068C068A16B9C
:101DD0000880A06B801CA063E08F401EE087E08F2E
:101DE0000128EBD8A06AB04207D12068016841F40D
:101DF000805101E068E007E00160534600220121C4
:101E0000204600F0C5FE08B10320B7E7E0680028CF
:101E1000206817D0C068A16B0880A06B801CA063ED
:101E2000E08F401EE087A06AB04217D153460022DF
:101E30000121204600F0ACFE50B1606D40F0020080
:101E40006065E1E7C168A06B421CA2630170E7E72F
:101E50002068C068ADF80000BDF80000606840452B
:101E60000AD1A068484502D0B0F5806F04D120683F
:101E7000016821F04001016084F85170A06AB0420D
:101E80000DD120688068C043C00608D4204600F009
:101E90007DFE012807D021686FF01000886084F86B
:101EA000505000206AE7606D40F0020060652068D5
:101EB000016821F4005101602068016841F400517B
:101EC000016084F8505058E7022057E72DE9F843A5
:101ED000044690F851009846012870D139B332B3C6
:101EE00094F8500001286AD0012784F8507012201D
:101EF00084F85100002666652163A286E286E664C6
:101F0000A664A663A687E687A06A7D03A84209D1D6
:101F10002068016821F4005101602068016841F4E3
:101F200000510160A068B0F5004F03D007E0012028
:101F3000BDE8F8832068016841F4804101602068B1
:101F40000168490603D4016841F040010160E0687E
:101F50000028606804D0D8B1E08E012818D021E0B4
:101F600010B1E08E012808D1206B411C216321684B
:101F70000078C860E08E401EE0860004000C1FD090
:101F8000434600220221204600F002FEA8B9EBE7FA
:101F9000206B21680088C860206B801C2063E08E65
:101FA000401EE0860004000C0AD0434600220221B5
:101FB000204600F0EDFD0028EAD00320B8E726E037
:101FC000A06AA84204D12068016841F480510160F0
:101FD000434600220221204600F0DAFD30B9434694
:101FE00001228021204600F0D3FD20B1606D40F039
:101FF00010006065E1E7A06818B92068C1688068D2
:10200000009084F8517084F85060002090E702201E
:102010008EE72DE9F8430026DDF820800446ADF870
:10202000006090F85100012803D094F85100222854
:102030007DD169B162B15BB194F85000012876D0CE
:10204000012784F8507094F85100012803D005E06E
:102050000120BDE8F883322084F851006665A26350
:10206000A387E3872163A386E386A664E664A06A68
:102070004FF40055A84209D12068016821F40051AD
:1020800001602068016841F4005101602068016826
:10209000490603D4016841F040010160E0684FF453
:1020A0008271B0F5006F606807D0002867D0884261
:1020B0006ED1E08E012862D06AE020B188420CD156
:1020C000E08E012809D1206B21680088C860206B50
:1020D000801C2063E08E401EE086E08E80B9A06AFE
:1020E000A84244D12068016841F4805101603EE07B
:1020F0002068C068A16B0880A06B801CA0639EE074
:10210000434600220221204600F042FD002874D1FF
:10211000206B21680088C860206B801C2063E08EE3
:10212000401E0004000CE08609D1A06A00E0C7E070
:10213000A84204D12068016841F4805101604346FF
:1021400000220121204600F023FD00286FD12068E5
:10215000C068A16B0880A06B801CA063E08F401E4C
:10216000E087E08E0028CBD1606800286AD1434622
:1021700000220121204600F00BFDF0BBB8E7206BE8
:10218000411C216321680078C860E08E401EE08613
:10219000E08E98B9A06AA84204D12068016841F491
:1021A00080510160434600220121204600F0F0FCEE
:1021B00018BB2068C068A16B087040E0434600224D
:1021C0000221204600F0E4FCB8B9206B411C2163D9
:1021D00021680078C860E08E401E0004000CE08694
:1021E00007D1A06AA84204D12068016841F4805157
:1021F000016000224346012100E018E0204600F083
:10220000C7FCA0B92068C168A06B421CA263017022
:10221000E08F401EE087E08E0028CFD1606888B94B
:10222000434600220121204600F0B2FC08B1032001
:102230000FE72068C168A06B421CA2630170E08FA9
:10224000401EE087A06AA84210D143460022012127
:10225000204600F09DFC18B1606D40F002000FE0D8
:102260002068C068ADF80000BDF8000043460122B8
:102270008021204600F08CFC20B1606D40F0100001
:102280006065D4E784F85170A06AA84214D1206830
:102290008168C943C9060FD4616D41F002016165CF
:1022A000016821F4005101602068016841F4005187
:1022B000016084F85060CBE684F850600020C8E6E6
:1022C0000220C6E64FF0E0210428086903D020F080
:1022D00004000861704740F00400FAE7704710B549
:1022E000401EB0F1807F01D3012010BD4FF0E024EB
:1022F00060610F21601700F0FEFB0020A061072045
:102300002061002010BD10B5FFF7E8FF10BD4FF0B1
:10231000E020016921F002010161704730B590F8B9
:102320003820012A20D0012380F83830022280F89A
:1023300039200268546824F07004546002685468BC
:102340000D682C4354600268946824F08004946003
:102350000268946849680C43946080F83930002121
:1023600080F83810084630BD022030BD10B504009A
:1023700003D094F8390010B107E0012010BD00200F
:1023800084F83800204600F00DF8022084F8390067
:10239000211D206800F0ACFC012084F839000020E9
:1023A00010BD000008B500680649884208D10648FB
:1023B000816941F400618161806900F400600090EE
:1023C00008BD0000002C014000100240022180F8EE
:1023D000391001680A6842F001020A60012180F8A0
:1023E00039100020704770B5044690F83800012875
:1023F00017D0012584F83850022084F8390020686D
:10240000826822F0770222F47F42826008685028B6
:1024100036D00DDC202858D005DC80B3102840D100
:1024200050E0022070BD302852D0402839D13EE023
:1024300060282DD070280BD0B0F5805F03D0B0F5A8
:10244000005F2ED110E02068816821F0070109E0CB
:10245000CB68D1E90121206800F07CFC206881680C
:1024600041F0770181601CE0CB68D1E9012120684F
:1024700000F070FC2068816841F48041F2E71EE0C2
:10248000CA684968206800F077FC5021206806E09F
:10249000CA684968206800F080FC6021206800F06C
:1024A00063FC84F83950002084F8380070BDCA6895
:1024B0004968206800F060FC40212068EFE70021B7
:1024C0002068ECE710212068E9E720212068E6E792
:1024D00030212068E3E7FEE7F8B5044641F08000CC
:1024E0008DF8000017461E46A18800222068FEF7DE
:1024F000DCFC4FF4FA652B4601226946A069FFF720
:10250000E5FCA069FFF779FB0128FAD12B4632469A
:102510003946A069FFF7DAFCA069FFF76EFB0128D6
:10252000FAD1A18801222068FEF7BFFCF8BD70B582
:102530000C460546012100F09CF8024644B1012CEE
:102540000BD0032C0FD0052C13D0062C17D01BE07A
:10255000002002F0F802E86116E0012002F0F80223
:10256000521CE86110E0032002F0F802D21CE8617E
:102570000AE0052002F0F802521DE86104E006209E
:1025800002F0F802921DE8612846BDE87040012182
:1025900000F0BBB970B5044601250021FFF7C7FF65
:1025A0000A20FEF731FB0121204600F062F80646C2
:1025B0000A20FEF729FB46F080020121204600F0A8
:1025C000A4F96420FEF720FB2046216A00F0DFF822
:1025D00094F82A10204600F01CF994F82B1020469D
:1025E00000F0F5F823220C21204600F08EF9204659
:1025F00000F036F994F82410204600F014F9FF2278
:102600001F21204600F081F994F8250094F8261047
:10261000000100EB4100C2B21D21204600F075F917
:10262000208D2021020A204600F06FF994F828201E
:102630002121204600F069F94021204600F019F8D8
:1026400040F03F024021204600F05FF90121204682
:10265000FFF76DFF0A20E561FEF7D6FA422120461A
:1026600000F007F8122802D04FF4CA7070BDC820DD
:1026700070BD0EB501F07F018DF8081001210A46EA
:10268000009101AB02A900F003F89DF804000EBD13
:102690002DE9F0470F461646044681889846DDF836
:1026A000209000680022FEF700FC4FF4FA652B46EC
:1026B00032463946A069FFF709FCA069FFF79DFA89
:1026C0000128FAD12B464A464146A069FFF708FB8C
:1026D000A069FFF792FA0128FAD1A1882068BDE825
:1026E000F0470122FEF7E1BB2DE9F04100250E463F
:1026F000074614462846294601E03154401CA042B2
:10270000FBDB01213846FFF712FF12213846FFF7A5
:10271000B0FF400620D5FF221221384600F0F5F820
:1027200013213846FFF7A5FF054610213846FFF76D
:10273000A0FF02460D21384600F0E7F8AC4200D376
:102740002C462546002405E000213846FFF791FF7E
:102750003055641CAC42F7DB05213846FFF7E7FE35
:102760002846BDE8F08110B50446818980680022C2
:10277000FEF79BFB0120FEF747FAA1890122A06822
:10278000FEF793FBBDE810406420FEF73DBA70B53C
:102790000546C8044411C4F307420621284600F048
:1027A000B4F80520FEF730FAC4F3072207212846C3
:1027B00000F0ABF80520FEF727FAE2B20821284620
:1027C00000F0A3F8BDE870400520FEF71DBA10B573
:1027D00000222D2901D22D2105E0F02901D9F02177
:1027E00008E0782904D805222D3991FBF2F105E0A3
:1027F000F02904D80A221E31B1FBF2F1CAB220320C
:10280000D2B20B2100F081F8BDE810400A20FEF79B
:10281000FBB910B50A46092100F077F8BDE8104071
:102820000A20FEF7F1B970B50C4606460C2901DD09
:102830000C2402E0072C00DA07241E21FFF719FF01
:1028400005460A20FEF7E0F964F31F15EAB21E21DF
:10285000304600F05AF8BDE870400A20FEF7D4B9BF
:1028600010B504461E21FFF704FF40F007021E21A9
:10287000204600F04AF8BDE810400A20FEF7C4B92F
:102880000521FFF754BE2DE9F0410F461C461646C0
:1028900080460121C569FFF74AFE0E214046FFF739
:1028A000E8FE02460D21404600F02FF83246222174
:1028B000404600F02AF833463A4600214046FFF7EA
:1028C0000BFE03214046FFF732FE12214046FFF780
:1028D000D0FE00070BD5FF221221404600F015F86C
:1028E00029464046FFF723FE0120BDE8F081641E23
:1028F0002404240C03D00120FEF786F9E5E72946DD
:102900004046FFF714FE0020EFE70EB541F08001CE
:102910008DF8041001218DF808200A46009102ABC1
:1029200001A900F001F80EBD2DE9F0470F4616464B
:10293000044681889846DDF8209000680022FEF762
:10294000B4FA4FF4FA652B4632463946A069FFF7D0
:10295000BDFAA069FFF751F90128FAD12B464A4682
:102960004146A069FFF7B2FAA069FFF746F90128CE
:10297000FAD1A1882068BDE8F0470122FEF795BA98
:102980002DE9F043354885B0816941F0100181613E
:10299000816901F010010491816941F02001816198
:1029A000816901F020010491816941F00401816194
:1029B000816901F004010491816941F0080181619C
:1029C0008069274F00F008004FF400540490002263
:1029D00021463846FEF769FADFF8888040F601069E
:1029E000012231464046FEF760FADFF87C90012272
:1029F00011464846FEF759FA002210214846FEF7D4
:102A000054FA00940124022569463846039501943E
:102A1000FEF762F9CDE90064694640460395FEF78A
:102A20005BF91120CDE90004694603954846FEF79D
:102A300053F9082000900D4801900020029069464B
:102A40004846FEF749F9002211460920FEF7A6FA8A
:102A50000920FEF797FA05B0BDE8F08300100240A8
:102A60000010014000080140000C0140000011105E
:102A70000C480B494FF4007201604FF482714160C1
:102A800000218160C1600161C0E905121022C0E926
:102A90000721416281620A21C162FFF7B1B80000DB
:102AA000003001407000002010B5104886B00E497B
:102AB000016047210024C0E901144FF6FE71C0E90E
:102AC00003144461FFF752FC4FF4805000906946B4
:102AD0000648FFF788FC049404A904480594FFF70E
:102AE0001DFC06B010BD0000002C0140C8000020F5
:102AF000FEE7FEF749BD0907090E002806DA00F0D7
:102B00000F0000F1E02080F8141D704700F1E02074
:102B100080F800147047000070B505460C461A484E
:102B2000FDF7F8FF4FF47A7631461748FDF75AFF64
:102B30001548FDF799FE20801348FEF74BF82088D2
:102B40006421B0FBF6F0303028702088B0FBF1F142
:102B50000A20B1FBF0F200FB1211303169702188BC
:102B6000B1FBF0F1B1FBF0F200FB12113031A970B2
:102B70002188B1FBF0F200FB12103030E870BDE8A4
:102B800070406420FEF740B84000002001207047EC
:102B90002DE9F0471D4690460F460446FEF78AF998
:102BA00006465FEA08004FF000084FF4005A4FF065
:102BB000010926D034E0681C23D025B1FEF77AF94C
:102BC000801BA8421DD92068416821F0E0014160C6
:102BD0002068016821F040010160A06A504509D1D8
:102BE0002068016821F4005101602068016841F407
:102BF0000051016084F8519084F850800320BDE8B2
:102C0000F0872068806837EA0000D4D10DE0681CA6
:102C100006D0002DD7D0FEF74DF9801BA842D2D8A0
:102C20002068806837EA0000F1D00020E7E710B59F
:102C3000FEF746F9BDE81040FFF765BB30B593B02D
:102C400001210804CDE9001000240294022504911A
:102C5000CDE907504FF4E01009906846FEF7A0FC5C
:102C60000F20CDE90A056802CDE90C4002210AA82F
:102C70000E94FEF7E3FAA80311900F950FA8FEF744
:102C800047FAFEF70DFC4FF47A71B0FBF1F0FFF755
:102C900026FB0420FFF716FB00221146501EFEF70C
:102CA0007DF913B030BD00000D48016841F001010D
:102CB000016041680B4A1140416001680A4A1140B5
:102CC0000160016821F480210160416821F4FE0166
:102CD00041604FF41F0181600449C00308607047E0
:102CE000001002400000FFF8FFFFF6FE08ED00E0D4
:102CF000F0B50268144C154D154E4FF08047A042B8
:102D000005D0B84203D0A84201D0B04203D122F08E
:102D100070034A681A43A04205D0B84203D0A842C3
:102D200001D0B04203D122F44073CA681A43026052
:102D30008A68C2620A688262A04201D1096901639D
:102D400001214161F0BD0000002C01400004004061
:102D50000008004010B5846842EA032224F47F444E
:102D60000A432243826010BD826822F070020A4347
:102D700042F007018160704710B5046A036A23F0CE
:102D800001030362836923F0F00343EA021324F092
:102D90000A020A438361026210BD10B5036A23F080
:102DA000100303628469036A24F4704444EA023223
:102DB00023F0A00343EA01118261016210BDFEE726
:102DC000044900220B685A6209684A6A8242FCD3AD
:102DD00070470000C80000208AB0FEF779F8FFF7BE
:102DE0002DFFFFF72BFFFFF7CBFD8A480026884910
:102DF0008660C66046610160012446604FF4602130
:102E00000461C161FDF734FD0694CDE9074606A9CA
:102E10008048FDF775FCFFF72BFEFFF745FE7D4967
:102E20007D4F303101F19400816140F80C7B7B498A
:102E300020F8084C40F8041CC914018008214760A0
:102E4000018140F2B111416107210176417684761A
:102E5000FF2181777821C1770A2181836D48C430B1
:102E6000FFF781FC6B48C430FFF794FB6C4DC8281A
:102E700000D1EC726748C430FFF702FD4FF40070D8
:102E8000CDE9020402200590A14602A93846FDF7CB
:102E900023FF60488830FFF799FA01221021384655
:102EA000FEF703F8DFF86C81DFF878B14FF4005AD1
:102EB00008F1FA080022544651465F465846FDF78D
:102EC000F4FFC820FDF7A0FE012221463846FDF799
:102ED000ECFFC820FDF798FEFFF719FA012100204A
:102EE000FEF78EF8FEF782FE2878012839D100F02F
:102EF000C9F8298AE869CDE900014648AA784AA1BB
:102F0000FA306B69FDF764F9A86208F800600024E4
:102F10004FF4FA6795F828003E49401CC2B2FA31D6
:102F20006423A1F13600FFF7AEFC0AE00120FDF7B3
:102F30006BFEE889401CE881287910B185F805907E
:102F400002E0E889B842F1D9EE81687920B16E716A
:102F50006420FDF759FE03E0641CE4B2052CD9D3CC
:102F60002E7068780028A5D0C820FDF74DFEE878BF
:102F7000002835D027480123AA7836A1FA30FDF77A
:102F800027F9A86208F800602249401CC2B2FA3151
:102F900044466423A1F13600FFF775FCE878F8B1E8
:102FA00041F2883700F06EF8298AE869CDE900011E
:102FB0001848AA781CA1FA306B69FDF709F9A862D4
:102FC00026541449401CC2B2FA316423A1F13600E0
:102FD000FFF759FC3846FDF717FEE8780028E1D1E5
:102FE0000C480023AA781BA1FA30FDF7F1F8A8627B
:102FF00008F800600749401CC2B2FA316423A1F10D
:103000003600FFF740FCC820FDF7FEFD6E7051E76B
:103010000024014040000020000C01400008014055
:1030200000000020001001407B224944223A256420
:103030002C2274656D70223A25642C2268756D22ED
:103040003A25642C226164635F76616C223A2564C0
:103050007D0000007B224944223A25642C227265BF
:103060006C6179223A25647D0000000010B5401A99
:10307000029CE41A6043511A90FBF1F0184480B2AC
:1030800010BD00002DE9F843FDF7E6FA334C0028A7
:1030900049D0FDF79DFAE071FDF79AFA2072FDF72D
:1030A00097FA6072FDF794FAA072FDF791FAA07199
:1030B000E179277A8846667A39448A19A17A0A44DE
:1030C000824230D1084600F0D7F9DFF89490002210
:1030D0004B4600F079F800F045F80546304600F020
:1030E000C9FA294600F030FA00F090FA606100EB6E
:1030F000C000052190FBF1F0203000F0A3FAA061A0
:10310000384600F0B9F900224B4600F05DF800F0B7
:1031100029F80546404600F0ADFA294600F014FAB9
:1031200000F074FAE061C820FDF76EFD0B490C3128
:1031300001F12000FFF7F0FCC820FDF765FD6420D9
:10314000002300904FF480521946A089FFF78EFFAC
:10315000C0F164002082BDE8F88300000000002078
:103160000000244021F00042A2F16052B2F5801F1D
:1031700001F0004328BFD2F17F6C0BD95FEA001C3D
:1031800043EAC20242EB507018BF704728BF20F0DC
:1031900001007047B2F5801FBCBF184670474FEA68
:1031A000410C1CF5001F02D2084600F0BCBA70B5F5
:1031B00000F075F900000089FFF7F6BF4FF00040FE
:1031C000A0F58000704700002DE9C04130B4DFF861
:1031D000A0C23CEA111418BF3CEA131400F0EC80C2
:1031E00081EA03051CEA111444EAD57418BF1CEAED
:1031F000131500F0C780A4EB05044FF0004545EA25
:10320000C12145EAC32341EA505143EA525304F134
:103210007F74994204F500344FEAC0204FEAC2227D
:1032200008BF904200F09C804FEA13650FF24016F1
:10323000765D4FEA134506FB05F7C7F1807706FB7D
:1032400007F74FEAD737A7FB03687642C8F58038FF
:10325000A7FB06CE38BFA8F1010807FB08E64FF030
:10326000000EA6FB028CE6FB03CEDCF1000CCEF1D7
:10327000004E38BFAEF1010EA6FB0C584FF0000710
:103280004FF00005E6FB0E87A1FB08C6A0FB07CEAA
:1032900016EB0E0645F10005E1FB076515F1E04E62
:1032A0007EBFA4F580345FEA46066D4116F18007C3
:1032B00045F100054FEA17274FEA066647EA05671A
:1032C000A6F1DE46B6F1805F4FEA15251FD93846D4
:1032D00024F0010C05EBC471BCF1FE6F01EB0C1185
:1032E00002D8F0BCBDE8008124425CBF01F5801E1D
:1032F0009EEAC47F02D4F0BCBDE80081244238D4E9
:10330000F0BCA1F1C041BDE8004100F016B94FEAA0
:10331000D22242EA43524FEAD323A7FB02864FEA66
:10332000D02040EA415007FB03661EEA0E0F4FEA29
:10333000D12105FB026658BFA6EB0056B6EB00563E
:103340004FEA520E4EEAC37E18EB0E0E56EB530EAA
:10335000BDD518EB02085E417F1C55F10005B6E7AC
:103360004FF480154FF000074FF000064FF00008B3
:10337000ADE7F0BC4FF0000001F1C04101F00041A9
:10338000BDE8008111EA0C1F0CEA131500D00CE017
:1033900013EA0C1F00F025804FF00000F0BC81EA1A
:1033A000030101F00041BDE80081F0BCBDE800412F
:1033B00081EA030100F0C1B8F0BCBDE8004170B57E
:1033C00000F06DF8097EFC3E00F007B881EA0301C9
:1033D0004FF0000001F00041704781EA030100F066
:1033E000ACB8F0BCBDE800414FF000002149704787
:1033F000FFFDFBF9F7F5F4F2F0EEEDEBE9E8E6E4BA
:10340000E3E1E0DEDDDBDAD8D7D5D4D3D1D0CFCD40
:10341000CCCBCAC8C7C6C5C4C2C1C0BFBEBDBCBB79
:10342000BAB9B8B7B6B5B4B3B2B1B0AFAEADACAB74
:10343000AAA9A8A8A7A6A5A4A3A3A2A1A09F9F9E4E
:103440009D9C9C9B9A999998979796959594939300
:10345000929191908F8F8E8E8D8C8C8B8B8A898997
:10346000888887878685858484838382828181801A
:103470000000FF070000F87FB0FA80F310FA03F1B4
:103480000AD0C3F11D0303F580634FEA41504FEAB0
:10349000035202EBD12170474FF0000070470EF14C
:1034A000020E2EF0030E5EF8046B364205D4012A9C
:1034B00043EB030515F5001F12D8012841EB010C61
:1034C0001CF5001F0CD80ED14FEAD17C15F5001F5A
:1034D0000CEB4C0C0CF1020C08BF4CEBD37C04E061
:1034E0004FF0080C01E04FEAD37C0CEB4C0526FAB8
:1034F00005F606F00706B6F1040C06D20EEB860CB4
:10350000BDE870404CF0010C6047DFE80CF0090B9F
:1035100002024FF000414FF00000A1F5002170BD04
:1035200019461046012851EB010418BFD4F50014C8
:1035300084BF002001F0004170BD0808A0F5001113
:103540004FEA31017047000090EA010F48BF81F057
:10355000004100F1F480421A3CBF801A89184FEAFA
:10356000D0524FF07F4C1CEA410FA2EBD15318BF51
:103570009CEA026F00F03B804FF0004C4CEA0020C8
:103580004CEA012121FA03FC10EB0C0C1ED202F1D3
:10359000FF325FEA1C2040EBC25038BF70471CF07E
:1035A0007F0F4FEA400C18BFBCF17F4F38BF704708
:1035B000C3F12003994008BF20F00100BCF17F4F08
:1035C00038BF7047A0F1C04000F0ADB84FEA3C00F2
:1035D000000A40EBC25028BF1CF0FF0F4FEA400C1E
:1035E000E6D018BFBCF17F4F38BF7047EAE79CEACE
:1035F000026F05D010EA5C0F08BF00F00040704772
:1036000010B500F04AF800BF64FBBE3E41000B0E4F
:10361000D3F19E0208D950F400034FEA032323FAA2
:1036200002F048BF4042704710B500F036F800BFC6
:1036300049922480002070476FF0004282EA200007
:103640007047000010F0004148BF4042B0FA80F3DC
:1036500010FA03F2C3F19D030BD051EAC35101EB01
:103660001220530638BF704700F1010008BF20F058
:1036700001007047B0FA80F310FA03F2C3F19D0322
:103680000AD0D90501EB1220530638BF704700F16C
:10369000010008BF20F0010070470EF1020E2EF06D
:1036A000030E5EF8044B244204D44FEA4102B2F107
:1036B0007F4F11D84FEA4003B3F17F4F0CD80ED1A2
:1036C0004FEAD07CB2F17F4F0CEB4C0C0CF1020CAA
:1036D00008BF4CEBD17C04E04FF0080C01E04FEA4E
:1036E000D17C0CEB4C0324FA03F404F00704B4F18E
:1036F000040C06D20EEB840CBDE810404CF0010C1B
:103700006047DFE80CF0070802024FF00040A0F528
:10371000800010BD0846420018BFD2F1807288BFF9
:1037200000F0004010BDFF2141EAD050C0057047B5
:1037300090EA010F48BF81F000413FF50CAF421AFB
:1037400004D882F00042A0EB020011444FEAD052AC
:103750004FF07F4C1CEA410FA2EBD15318BF9CEAFB
:10376000026F4AD04FF0004C4CEA00204CEA012195
:1037700021FA03FCB0EB0C0C0FD412F0FE0F36D084
:103780005FEA4C001DD5001240EBC25038BF7047B5
:103790001CF03F0F18BF70470BE0A2F101025FEA77
:1037A0001C2040EBC25038BF70471CF07F0F18BF81
:1037B0007047C3F12003994014BF401E20F0010060
:1037C000704780084FEA122308BF7047B0FA80FCA8
:1037D000A2EB0C02CCF1280C60FA0CF093EA122F49
:1037E00004BF00EBC25070474FEAC3707047130A22
:1037F0005FEADC1008BF7047F6E79CEA026F04D06E
:1038000010EA5C0F08BF0020704710B5FFF745FFB6
:1038100040DFF63E81F000407047000000000102EA
:103820000304010203040607080900004C380008DD
:103830000000002040000000280100088C3800082B
:1038400040000020E00700004401000800000200E2
:103850000000000000000000000000000000000068
:103860000000000000000000000000000000000058
:103870000000000000000000000000000000000048
:0C388000000000000000000000A24A044C
:04000005080000ED02
:00000001FF
